:030000000209A84A
:0C09A800787FE4F6D8FD75812B0208F67C
:1009840000D600D500D300D700C700AE00AD00AB41
:1009940000A700AF008F005E005D005B0057004FB2
:0409A400005F001FD1
:09095A00F808E6F5A07F507E00CC
:10096300E4FDEDC39FEE6480F87480985012E4FCBC
:10097300ECC394947480948750030C80F30D80E24D
:010983002251
:1008F60078087C007D007BFF7A0979847E007F0A78
:100906001208D078127C007D007BFF7A09798E7EF2
:10091600007F0C1208D0781E7C007D007BFF7A09D0
:10092600799A7E007F0E1208D0E4FBEB25E02408BE
:1009360012095A0BBB05F4E4FBEB25E0241212095D
:100946005A0BBB06F4E4FBEB25E0241E12095A0BF6
:03095600BB07F4E8
:01095900227B
:10080000E709F608DFFA8046E709F208DFFA803EDA
:1008100088828C83E709F0A3DFFA8032E309F608C7
:10082000DFFA8078E309F208DFFA807088828C832F
:10083000E309F0A3DFFA806489828A83E0A3F608E3
:10084000DFFA805889828A83E0A3F208DFFA804CBD
:1008500080D280FA80C680D4806980F28033801094
:1008600080A680EA809A80A880DA80E280CA8033FD
:1008700089828A83ECFAE493A3C8C582C8CCC58375
:10088000CCF0A3C8C582C8CCC583CCDFE9DEE78045
:100890000D89828A83E493A3F608DFF9ECFAA9F0C4
:1008A000EDFB2289828A83ECFAE0A3C8C582C8CC1A
:1008B000C583CCF0A3C8C582C8CCC583CCDFEADE33
:1008C000E880DB89828A83E493A3F208DFF980CC95
:1008D00088F0EF60010E4E60C388F0ED2402B4048E
:1008E0000050B9F582EB2402B4040050AF23234535
:0608F00082239008507302
:00000001FF
